:020000040800F2
:10000000B8050020450100088129000801270008E3
:100010005129000871090008412D00080000000066
:10002000000000000000000000000000712A00082D
:1000300075090008000000006D2A00081D2B00084B
:100040005F0100085F0100085F0100085F01000810
:100050005F0100085F010008790900085F010008DE
:100060005F0100085F0100085F0100085F010008F0
:100070005F0100085F0100085F0100085F010008E0
:100080005F0100085F0100085F0100085F010008D0
:100090005F0100085F0100085F0100085F010008C0
:1000A0005F0100085F0100085F0100085F010008B0
:1000B0005F0100085F0100085F0100085F010008A0
:1000C0005F0100085F0100085F0100085F01000890
:1000D0005F010008352D00085F0100085F0100087E
:1000E0005F0100085F0100085F0100085F01000870
:1000F0005F0100085F0100085F0100085F01000860
:100100005F0100085F0100085F0100085F0100084F
:100110005F0100085F0100085F0100085F0100083F
:100120005F0100085F0100085F0100085F0100082F
:10013000DFF80CD000F076FB00480047652D000882
:10014000B80500200648804706480047FEE7FEE75E
:10015000FEE7FEE7FEE7FEE7FEE7FEE7FEE7FEE777
:10016000452B000831010008F0B480EA0102D40FE9
:100170004200B2EB410F02D20246084611464A0045
:1001800042D0C30DDDB2C1F3C752AD1A202D35DA0E
:10019000C1F3160141F4000204B15242C5F1200638
:1001A00002FA06F12A411044B3EBD05F23D0C4B168
:1001B000012DA0EBC35009DCF0BC4FF0004202EA75
:1001C000C352DBB200F5000000F045B9400000F179
:1001D000807000EBC350A0F1807040EAD1704900FC
:1001E00009E0490841EAC071A0EBC35000F50000E6
:1001F000400800EBC350F0BC00F024B9614201227A
:1002000002EB4101001BF6E7F0BC704781F00041B2
:10021000AAE780F00040A7E780EA010210B502F0EB
:100220000043400022D04A001FD0010E01EB1261B2
:10023000C0F35600C2F3560240F4000042F400023C
:10024000A0FB022000047F39140400D0401C50EAB7
:10025000124001D44000491EC2B20C0604EBD0107B
:10026000401C4008802A02D003E0002010BD20F08E
:100270000100002900DA0020184310BD30B480EAE4
:10028000010202F0004530F0004221F0004013D09E
:1002900090B1C30DD40DC2F31601C0F31600E41AD9
:1002A00041F4000140F400027D34914201D3641C0A
:1002B00000E04900002C02DA30BC002070474FF407
:1002C00000000023914201D3891A034340084FEAFA
:1002D0004101F7D151B1914202D14FF0004105E007
:1002E00002D24FF0010101E06FF0010103EBC450B5
:1002F000284430BC00F0A6B8002801DBC0F1004063
:10030000002901DBC1F10041814201D80120704781
:1003100000207047002801DBC0F10040002901DB0C
:10032000C1F10041814201D3012070470020704794
:10033000002801DBC0F10040002901DBC1F10041D0
:10034000814201D90120704700207047C10F80EA27
:10035000E0700844CA079623002100F07CB8962379
:100360000022114600F077B820F00040C10DC0F324
:10037000160040F400007F2901DA0020704796291A
:1003800003DCC1F19601C840704796398840704738
:1003900000F0004230F000400AD0C10D01F560715C
:1003A000C0F3160042EA0151C208400711437047EA
:1003B00000200146704730B50B4601460020202240
:1003C000012409E021FA02F59D4205D303FA02F562
:1003D000491B04FA02F52844151EA2F10102F1DCC2
:1003E00030BD2DE9F05F0546002092469B468846C9
:1003F0000646814640241BE02846414647462246A1
:1004000000F037FA53465A46C01A914110D31146AC
:100410001846224600F01EFA2D1A67EB01084F46D7
:1004200022460120002100F015FA17EB00094E4189
:10043000201EA4F10104DFDC484631462A4643462B
:10044000BDE8F09F0029A8BF7047401C490008BFC5
:1004500020F00100704710B4B0FA80FC00FA0CF0F4
:1004600050EA010404BF10BC704749B1CCF120042C
:1004700021FA04F411FA0CF118BF012121430843B9
:10048000A3EB0C01CB1D4FEA00614FEA102042BFE5
:10049000002010BC704700EBC35010440029A4BFDB
:1004A00010BC7047401C490008BF20F0010010BC80
:1004B00070472DE9FE4F804681EA0300C00F0C46CD
:1004C000009021F0004123F00045B8EB0200A94163
:1004D00005D24046214690461C460B46024623F074
:1004E0000040104347D0270DC7F30A00C3F30A5159
:1004F0000290401A019040286BDAC3F3130040F4D5
:10050000801B0098924620B10023D2EB030A63EBD4
:100510000B0B01985946C0F14002504600F09AF981
:1005200006460D4650465946019A00F0B2F910EBC6
:1005300008006141002487EA115284EAE7731A43F4
:1005400040D0009A62B3019A012A4FEA075215DCA3
:10055000001B61EB02014FF0004202EA0752CDE9B5
:100560000042001C41F5801132462B4600F0B2F9E2
:1005700003B0BDE8F08F40462146F9E7001B61EB70
:100580000201001C41F5801300185B412018A2F500
:10059000001747EB030140EAD570B6196D4111E031
:1005A0006D084FEA360645EAC0754FEA0752001B50
:1005B00061EB0201001C41F5801149084FEA30004F
:1005C0000019514132462B4603B0BDE8F04F00F010
:1005D00072B90098012240000023D0EB020263EBC5
:1005E000E073009821464FEAE074B8EB000061EB3D
:1005F0000401E9E783F000435BE781F0004158E73D
:100600002DE9FE4F81EA030404F0004421F000418B
:1006100000944FF0000B23F0004350EA01045ED039
:1006200052EA03045BD0C3F30A54C1F30A552C44C5
:10063000A4F2F3340194A0FB0254C1F3130141F47A
:100640008011C3F3130343F4801301FB024400FB46
:10065000034E840A970A44EA815447EA8357A4FB6D
:10066000076802958D0A05FB07854FEA932C04FB6A
:100670000C542705029D4FEA065847EA1637B5EB9A
:1006800008056EEB070C870E920E47EA811742EAC7
:100690008312A7FB0201B6EB0B0164EB00042B0DE8
:1006A00043EA0C335E1844EB1C50DA465146E7FB34
:1006B0000201C5F313044FEA0B3343EA14534FEA24
:1006C0000432019C43EA0603A4F10C040294009C4A
:1006D000CDE900B400F0FEF803B0BDE8F08F0020D3
:1006E0000146F9E72DE9F04D81EA030404F0004BDF
:1006F00021F0004514464FF0000A23F0004150EA73
:10070000050220D054EA01021DD0C5F30A57024663
:10071000C5F31303C1F31300C1F30A5640F4801567
:1007200043F48013A7EB0608101BD64608F2FD38E9
:1007300073EB050002D308F1010801E092185B4158
:10074000B8F1000F03DA00200146BDE8F08D00206B
:100750004FF48011064684460EE0171B73EB050725
:1007600005D3121B63EB050306434CEA010C490851
:100770004FEA300092185B4150EA0107EDD152EA8E
:10078000030012D082EA040083EA0501084305D081
:10079000101BAB4106D20122002306E000224FF0DD
:1007A000004302E06FF0010253101AEB06004CEB1D
:1007B000085110EB0A0041EB0B01BDE8F04D00F0D1
:1007C0007AB8C1F30A52C1F3130140F2FF3341F486
:1007D00080119A4202DA00200146704740F233430A
:1007E0009A42A2F2334202DC524200F042B800F0D8
:1007F00031B8000030B5041E71F1000404DB4FF085
:100800000044404264EB0101141E73F1000405DB57
:100810001C464FF00043524263EB0403994208BF69
:10082000904230BD1CB5094800900948019005462A
:10083000009C06E0E06840F0010394E80700984758
:100840001034AC42F6D3FFF777FC0000CC37000839
:10085000EC370008202A04DB203A00FA02F10020DD
:1008600070479140C2F1200320FA03F319439040EE
:100870007047202A04DB203A21FA02F00021704759
:1008800021FA02F3D040C2F12002914008431946F8
:100890007047202A06DBCB17203A41FA02F043EAE0
:1008A000E07306E041FA02F3D040C2F12002914029
:1008B00008431946704710B5141E73F1000408DA96
:1008C000401C41F1000192185B411A4301D120F014
:1008D000010010BD2DE9F04D92469B4611B1B1FAD1
:1008E00081F202E0B0FA80F220329046FFF7B2FFC8
:1008F00004460F4640EA0A0041EA0B0153465A46B5
:10090000084313D0114653EA010019D0C8F1400240
:100910005046FFF7AEFF05460E4650465946424642
:10092000FFF798FF084305D0012004E02046394630
:10093000BDE8F08D0020054346EAE0762C433743BE
:100940000A986305E40AA0EB08000022FD0A44EAC5
:1009500047540A3002D500200146E9E70105101985
:100960006941DDE9084500196941BDE8F04DA2E79C
:10097000FEE7000070470000012000F015B90000FC
:10098000EFF3108072B600BFFEE70000F0B581B053
:1009900040F2D800C2F20000006840F21807C2F22C
:1009A0000007406A79893881411A788108B2B98193
:1009B000FFF7CCFC4CF6CD41C4F24E41FFF75EFC94
:1009C00048F20001C4F2BB51FFF726FCD7E90056FC
:1009D00004462946FFF71AFC002120F00040C4F22B
:1009E0004831FFF7A5FC43F233310028C3F63371D9
:1009F000304618BF2C463C60FFF70EFC49F69A11B2
:100A00000546C3F699612046FFF706FC2946FFF725
:100A1000ABFB7860386101B0F0BD0000014690F892
:100A20002100022816D10868D1E90FC3026822F01C
:100A30000E020260026822F001020260012000FA48
:100A400003F2CCF8042081F821000020002281F874
:100A500020207047042088630120002281F8202094
:100A60007047000090F82110022927D1026840F257
:100A7000040C1368C4F2020C23F00E031360136815
:100A80000CF17C018A4223F0010111601AD940F275
:100A90000841C4F202018A4250D040F21C41C4F223
:100AA00002018A4242D040F23041C4F202018A423D
:100AB00048D14FF48073CCF800345CE004218163AA
:100AC000012070474321C4F202018A420EDD6B21EE
:100AD000C4F202018A421BDC4421C4F202018A42B0
:100AE0003ED05821C4F202018A4223E00821C4F218
:100AF00002018A4232D01C21C4F202018A4237D05C
:100B00003021C4F202018A4214D14FF4807230E0E5
:100B10006C21C4F202018A4226D08021C4F2020173
:100B20008A4207D14FF0807223E000BF1023CCF837
:100B3000003420E04FF480321BE000BF0123CCF8EA
:100B4000003418E00CF588614FF480338A4208BF06
:100B50004FF48053CCF800340DE000BF012208E0D0
:100B60004FF4805205E000BF4FF4801201E000BF57
:100B70001022CCF80020012180F82110416B0022C6
:100B8000002980F8202004BF0020704780B58847E6
:100B9000002080BD012818BF704740F22E00C2F22D
:100BA000000001210170704740F21441C4F20101BC
:100BB0000A68024214BF08607047FFF7EBBF0000ED
:100BC0002DE9F04F82B00E68002E00F0E980A0F110
:100BD000804241F6004540F20043A2F58432C4F25F
:100BE00001050624C4F201034FEAB227A84208BF58
:100BF00005244FF0000E4FF001080F254FF0000ABA
:100C00004FF0000B052F38BF4FEAB224009408E0E4
:100C10000E680AF1010A36FA0AF20EF1040E00F02B
:100C2000BF8008FA0AFC16EA0C09F1D04E684FF6AC
:100C3000FF72C1F21002964212DC122E56D8DFE883
:100C400006F0350B4D495555555555555555555586
:100C500055555545510000BFD1F80CB046E000BFD6
:100C60004FF6FF72C1F2210296420FDC0022C1F260
:100C7000110296421AD00022C1F21202964215D0F9
:100C80000022C1F22102964210D02FE00022C1F2D0
:100C9000220296420AD00022C1F23102964205D0C9
:100CA0000022C1F23202964220D100BF8A684AB1C6
:100CB000012A14BFC0F814C0C0F810C04FF0080BD0
:100CC00014E000BF4FF0040B10E000BFCA6802F14F
:100CD000040B0BE04FF0000B08E000BFCA6802F104
:100CE000080B03E0CA6802F10C0B00BF0246744611
:100CF000B9F5807F24BF0432203C166805FA04F75A
:100D000026EA07070BFA04F637431760CA79D206BA
:100D10007FF57EAF41F21807C4F202073A684FF63A
:100D2000084542F001023A603A68CFF6FF7502F0DA
:100D300001020192019A2AF003021A440F24575922
:100D40000EF00C06B440A743009C04FA06F63743A5
:100D500057514E6840F20C44F2029A6854BF22EA9E
:100D6000090242EA0902C4F201049A602268B70249
:100D700054BF22EA090242EA090222605A68B70314
:100D800054BF22EA090242EA09025A600F251A6892
:100D9000F70354BF22EA090242EA09021A6037E760
:100DA00002B0BDE8F08F0000002A08BF090401610D
:100DB0007047000040F2B410C2F2000000687047B3
:100DC00040F2040040F2B411C2F20000C2F200018D
:100DD00000780A68104408607047000080B542F24D
:100DE0000000C4F20200016841F01001016003201C
:100DF00000F08CF80F2000F005F800F027F8002034
:100E000080BD000070B540F20406C2F2000640F258
:100E10000C013278C2F200014FF47A730968B3FB17
:100E2000F2F20446B1FBF2F1084600F085FB0F2C0C
:100E30004FF0010508D838B94FF0FF3021460022A5
:100E4000002500F037F87460284670BD82B041F28A
:100E50001800C4F202000168022241F001010160A1
:100E6000016801F0010101910199416841F080514F
:100E70004160406800F08050009000980420C4F267
:100E80000100016862F31A61016002B0704700005E
:100E9000002848BF704700F01F01012202FA01F14B
:100EA0001C2202EAD0004EF20012CEF20002815063
:100EB0007047000010B54EF60C5CCEF2000CDCF86A
:100EC0000030C3F3022E8EF00704042C28BF042444
:100ED000BEF103034FF0FF3E0EFA04F438BF0023C7
:100EE000A14399400EFA03F39A43114300F00F0215
:100EF00000F160430901043A03F5644362440028A9
:100F000048BF02F10C03197010BD00004EF60C51E1
:100F1000CEF200010A684FF6FF031A4060F30A227E
:100F200042F0806040F0FD7008607047002804BF08
:100F3000012070472DE9F04381B042F20008C4F26D
:100F400002080446D8F800000D4600F00700814270
:100F50000CD9D8F8000020F007002843C8F800009A
:100F6000D8F8000000F00700A8426CD1206841F2D8
:100F700004098107C4F2020917D5410705D5D9F83C
:100F8000001041F4E061C9F80010010705D5D9F857
:100F9000001041F46051C9F80010D9F80010A2689F
:100FA00021F0F0011143C9F80010C00742D1D8F870
:100FB000000000F0070085420CD2D8F8000020F0B5
:100FC00007002843C8F80000D8F8000000F0070028
:100FD000A84238D12068410707D5D9F80010E26847
:100FE00021F4E0611143C9F80010000708D5D9F8D1
:100FF0000000216920F4605040EAC100C9F80000F7
:10100000D9F8002002F00C00082841F20020C0F2BC
:101010007A004DD143F2BC73C2F38341C0F60003A2
:10102000595CD20338D440F60010C0F23D0048436A
:101030003EE000BF606859F8041C022808D001286F
:1010400026D1890306D4012001B0BDE8F08300BF9A
:101050008901F8D5D9F8001021F003010843C9F837
:101060000000FFF7A7FE064641F28837D9F80000D6
:10107000616800F00C00B0EB810F98D0FFF79AFE8A
:10108000801BB842F2D9032001B0BDE8F08300BF55
:101090008907D8D5DEE700BFD9F8002043F2BA733C
:1010A000C2F34042C0F600039A5C4843B0FBF2F042
:1010B000D9F8001043F2A272C1F30311C0F6000286
:1010C000515C40F20C0220FA01F140F20800C2F239
:1010D00000000068C2F200021160FFF793FE0020DA
:1010E00001B0BDE8F083000040F20C0041F20401C1
:1010F000C2F20000C4F202010068096843F2B27251
:10110000C1F30221C0F60002515CC84070470000E4
:1011100040F20C0041F20401C2F20000C4F20201EC
:101120000068096843F2B272C1F3C221C0F600023E
:10113000515CC84070470000002804BF0120704780
:101140002DE9F04182B00446007841F20006C00764
:10115000C4F202060CD0706800F00C00042840F0C5
:1011600081803068800303D56068002800F04681E4
:10117000207880071BD5706810F00C0F09D07068BC
:1011800000F00C00082840F087807068C00300F170
:1011900083803068800703D52069012840F02E81C4
:1011A0003068616920F0F80040EAC10030602078C2
:1011B000000713D4207840072CD4E569002D00F0F7
:1011C0001881706800F00C00082840F0A780012DFD
:1011D00040F00481012002B0BDE8F081A069002840
:1011E00000F084800020C4F242200121C0F8801465
:1011F000FFF7E0FD054600BF706A800700F1B2808E
:10120000FFF7D8FD401B0228F6D9032002B0BDE845
:10121000F08100BFF0695FEAC00808D4F06940F0CF
:101220008050F061F06900F080500090009847F223
:101230000007C4F200073868C00549D4386840F494
:1012400080703860FFF7B6FD054600BF3868C005FE
:101250003ED4FFF7AFFD401B6428F7D9032002B04E
:10126000BDE8F081706800F00C00082803D17068B8
:10127000C0033FF576AF61683068002900F00C814B
:10128000B1F5A02F00F00081B1F5803F40F01A8148
:1012900040F480301CE100BF2069002840F20000CB
:1012A000C4F2422000F0888001210160FFF782FD36
:1012B000054600BF306880073FF572AFFFF77AFD43
:1012C000401B0228F6D9032002B0BDE8F08100BF20
:1012D000E168306A002900F09D80052900F09280C5
:1012E000012940F0AF8040F00100B1E00020C4F2DD
:1012F00042200021C0F88014FFF75CFD054600BFC6
:10130000706A80077FF556AFFFF754FD401B022837
:10131000F6D9032002B0BDE8F08100BF0027C4F277
:10132000422700203866FFF745FD022D05460DD106
:101330003068800140F1DE80FFF73CFD401B022851
:101340004FF00300F4D902B0BDE8F08130688001AD
:101350004FD5FFF72FFD401B02284FF00300F5D9B2
:10136000F1E700BF40F20C00C2F20000006844F652
:10137000D351C1F26201A0FB0101480A019000BFF4
:1013800000BF0198411E002801913FF413AF00BF38
:101390000198411E002801913FF40CAF00BF019855
:1013A000411E002801913FF405AF00BF0198411E86
:1013B00000280191E4D1FDE600210160FFF7FAFC6D
:1013C000054600BF306880077FF5F1AEFFF7F2FCFD
:1013D000401B02284FF00300F4D9B4E77068216A7B
:1013E00000F480328A4209D1616A00F470108842A8
:1013F00004D1002002B0BDE8F08100BF012002B09E
:10140000BDE8F08140F004003062306A40F0010035
:101410001EE000BF20F001003062306A20F00400BE
:101420003062FFF7C7FC054641F28837306A800713
:1014300020D5FFF7BFFC401BB8424FF00300F5D9A1
:1014400081E700BF20F001003062306A20F0040024
:101450003062FFF7AFFC054641F28837306A8007FB
:1014600008D4FFF7A7FC401BB842F7D9032002B00D
:10147000BDE8F081B8F1000F3FF59FAEF06920F0B4
:101480008050F06199E600BF40F480203060306801
:1014900040F480301CE000BF20F4803030603068C1
:1014A00020F480203060FFF785FC0546306880031B
:1014B0007FF55EAEFFF77EFC401B64284FF0030013
:1014C000F4D940E720F480303060306820F4802088
:1014D0003060FFF76FFC0546306880033FF548AE8B
:1014E000FFF768FC401B6428F6D9032002B0BDE872
:1014F000F08100BF206AB0F5803F05D17168A26815
:1015000021F40031114371607168626A21F4741131
:1015100011430843706001203866FFF74BFC044616
:10152000306880013FF565AFFFF744FC001B0228DF
:101530004FF00300F4D906E7411E0020B0EB116F15
:101540001CBF012070474EF21002CEF20002516023
:101550004EF62351CEF20001F0230B70072190606C
:101560001160704790F83C20012A4FF0020242D0EF
:1015700010B580F83D200268D2F804E0D2F808C027
:101580000C682EF07003234340F6FF34C4F20004CD
:10159000A242536010DCB2F1804F1FD040F20043F2
:1015A000C4F200039A4219D040F60003C4F20003CB
:1015B0009A4213D017E000BF40F60043C4F2000384
:1015C0009A420BD043F20043C4F201039A4205D081
:1015D00042F60043C4F201039A4204D149682CF058
:1015E0008003194391600121002280F83D1080F8AA
:1015F0003C20BDE81040104670470000002804BFA2
:101600000120704710B5044690F83D0028B900202D
:1016100084F83C00204600F01FF8022084F83D00CA
:101620002068211D01F090FA012084F8460084F81A
:101630003E0084F83F0084F8400084F8410084F8BC
:10164000420084F8430084F8440084F8450084F89C
:101650003D00002010BD0000006840F20041C4F2CF
:101660000001884218BF704781B041F21C00C4F2EB
:101670000200016841F002010160006800F0020010
:101680000090009801B0704790F83C20012A4FF07C
:1016900002026CD080B580F83D20D0F800C04FF633
:1016A0007772DCF8083023EA0202CCF808200B68D5
:1016B0004F2B29DC1F2B45DD202B46D0302B44D06F
:1016C000402B40F0AF80D1F804E0C968DCF820304E
:1016D000DCF8202022F00102CCF82020DCF81820D1
:1016E00022F0F00242EA011123F00A0242EA0E025D
:1016F000CCF81810CCF82020DCF8081041F0470195
:1017000021F0300128E000BF6F2B33DDB3F5005F1F
:1017100074D0B3F5805F21D0702B40F08380D1E985
:1017200001E3C968DCF8082043EA0E0322F47F4293
:1017300043EA01211143CCF80810DCF8081041F00D
:10174000770109E00BB1102B6CD1DCF8081021F007
:101750007001194341F00701CCF808100022012163
:1017600080F83D10002180F83C10BDE88040104614
:10177000704700BF502B21D0602B53D1D1F804E02B
:10178000C968DCF82030DCF8202022F01002CCF808
:101790002020DCF8182022F4704242EA013123F0C4
:1017A000A00242EA0E12CCF81810CCF82020DCF887
:1017B000081041F0670121F01001CDE7D1F804E0F5
:1017C000C968DCF82030DCF8202022F00102CCF8D7
:1017D0002020DCF8182022F0F00242EA011123F068
:1017E0000A0242EA0E02CCF81810CCF82020DCF8ED
:1017F000081041F0570121F02001ADE7D1E901E3E4
:10180000C968DCF8082043EA0E0322F47F4243EA69
:1018100001211143CCF80810DCF8081041F4804194
:101820009AE700BF01229AE7002804BF0120704711
:101830002DE9F047044690F83D000D4628B90020F8
:1018400084F83C00204600F049F8022084F83D006E
:10185000206844F20702816891438160211D01F0F4
:1018600073F920684FF6FF7881688269D0F820C04C
:10187000D5E9003ED5E9026A43EA0109AB6922EAEB
:10188000080246EA03234FF6FC46B343D5E907674F
:1018900042EA0A0229691A4342EA062242EA01118F
:1018A0002CF022026B6942EA0E0241EA073142EA59
:1018B0000312C0F8089081610262012084F846009A
:1018C00084F83E0084F83F0084F8420084F8430026
:1018D00084F83D000020BDE8F087000070B586B0B8
:1018E00000680026B0F1804FCDE9046603960296A9
:1018F00002D006B070BD00BF41F21800C4F2020071
:10190000416840F6000441F0010141604168C4F2C1
:10191000010401F0010101910199016802AD41F05A
:1019200004010160016801F004010191019901685D
:1019300041F0080101600068294600F008000190AC
:1019400001984FF40040CDE9020620460496FFF7C7
:1019500037F90820CDE9020604F58060294604968F
:10196000FFF72EF90420C4F2010001684FF6FF4290
:10197000CFF6FF02114041F0E06141F48071016057
:1019800006B070BD80B590F83E2090F83F3090F8DA
:1019900042E090F843C004290AD0B9B9012A4FF0B7
:1019A000010208BFBEF1010F34D0104680BD00BF58
:1019B000012B4FF0010208BFBCF1010FF5D102214C
:1019C00080F83F1080F8431000681EE0012A4FF0B5
:1019D000010208BF012BE8D1BEF1010FE5D1BCF136
:1019E000010FE2D1022280F83E2080F83F2080F8EB
:1019F000422080F8432091B10068016A21F0010182
:101A00000162016A41F00101016210216FF01002D0
:101A100009E000BF022180F83E1080F84210006803
:101A200001216FF00102036A1A400262026A114347
:101A300001620168002241F001010160104680BD91
:101A400090F83C30012B04BF022070474FEAB202ED
:101A5000032A00F21D812DE9F041DFE802F003C7FF
:101A6000479100BF036843F200461D6A1A6A25F0D9
:101A7000020522F001021A621A465C6852F818CF79
:101A80008F68D1F800E0C4F20106B34245EA0705C9
:101A900005D042F60047C4F20107BB4205D1CF682A
:101AA00025F00C0527F004073D43B34205D042F66C
:101AB0000046C4F20106B34205D1D1E9056724F41A
:101AC000407434433C432CF0730747EA0E075C60D4
:101AD0009F614F6809695F631D629F6947F008074E
:101AE0009F619F6927F004079F61C6E0036843F286
:101AF00000461D6A1A6A25F4007522F480721A6283
:101B00001A46D3F804C052F81CEF8F68D1F8008051
:101B1000C4F20106B34245EA072505D042F6004764
:101B2000C4F20107BB4208D1CF6840F2FF443F0234
:101B300025F4406527EA04042543B34205D042F664
:101B40000044C4F20104A34206D1D1E905462CF4B5
:101B50004057264347EA061C2EF0730747EA08075A
:101B6000C3F804C0DF614F680969DF631D62DF6984
:101B700047F00807DF61DF6927F00407DF617CE0D9
:101B8000036843F20047D3F820C01A6AC4F2010781
:101B900022F480521A621A465C6852F81C5FD1F82F
:101BA00000E08E68BB4205D042F60047C4F2010750
:101BB000BB4204D14F6924F4804444EA87142CF4D6
:101BC000005747EA063725F4E64646EA0E265C60EB
:101BD000DE614E6809691E641F62DF6947F40067B1
:101BE000DF61DF6927F48067DF6145E0036843F266
:101BF00000481D6A1A6A25F0200522F010021A62B8
:101C00001A465C6852F818CF8F68D1F800E0C4F229
:101C10000108434545EA071505D042F60047C4F2DE
:101C20000107BB4207D1CF686FF0400625F0C00521
:101C300006EA07163543434505D042F60046C4F28E
:101C40000106B34206D1D1E9056724F440643E435E
:101C500044EA86042CF4E64747EA0E275C609F615D
:101C60004F6809699F631D629F6947F400679F6120
:101C70009F6927F480679F61090213681943116007
:101C80000021BDE8F041002280F83C200846704762
:101C90000121002280F83C2008467047002804BF3C
:101CA0000120704710B5044690F83D0028B9002087
:101CB00084F83C00204600F01FF8022084F83D0024
:101CC0002068211D00F040FF012084F8460084F8C0
:101CD0003E0084F83F0084F8400084F8410084F816
:101CE000420084F8430084F8440084F8450084F8F6
:101CF0003D00002010BD000070470000C1B1042964
:101D000008D0082914BF41224022825C012A05D054
:101D100016E000BF3F22825C012A11D1022208296D
:101D200010D0042914BF80F8412080F83F200BE038
:101D300090F83E20012A03D1022280F83E2003E0E1
:101D40000120704780F84020006801F01F01012247
:101D5000036A02FA01F123EA01020262026A1143F4
:101D600040F6FF32C4F20002904201620EDCB0F194
:101D7000804F25D040F20041C4F2000188421FD0BC
:101D800040F60001C4F2000118E000BF40F6004137
:101D9000C4F20001884213D043F20042C4F20102AF
:101DA00042F600419042C4F2010101D088420ED1B6
:101DB000436C904243F40043436401D0884206D10F
:101DC000816801F00701062904BF002070470168FF
:101DD00041F00101016000207047000070470000E1
:101DE00070470000B0B582B001680A68CC684B69E2
:101DF00002F02F05202D04F0200505D125B102B0F9
:101E0000BDE8B04000F016BF5FEA027C1EBF03F0E1
:101E1000010E04F4907313EB0E0341D1036BD5064E
:101E200018D5012B16D114F0100313D00022019203
:101E30000A6801924A680192019A496949064BD49D
:101E4000818DC28DC38D002B18BF914240F0F4816B
:101E500002B0B0BD13062DD514F080032AD090F83F
:101E60004120212AF4D18268B2F5805F03D1026952
:101E7000002A00F06782026A531C036212784A60EB
:101E8000C28C013A1304C284E2D1C86820F08000F9
:101E9000C860C86840F04000C86002B0B0BD00BF74
:101EA000D30718BF14F4807340F0D080530700F1BB
:101EB000D380D8E05206CBD514F04002C8D0CA680F
:101EC00022F04002CA60202180F8411002B0BDE833
:101ED000B04000F013BC00BFC16B0A68526893B2F7
:101EE000002BB5D0858DAB42B2D2C285896920293D
:101EF00000F0A180016851E8031F026821F480719D
:101F000042E80313DBB1016851E8031F026821F4C2
:101F1000807142E8031393B1016851E8031F02681E
:101F200021F4807142E803134BB1016851E8031FAB
:101F3000026821F4807142E80313002BDAD10168B2
:101F400051E8051F026821F0010142E80513C3B3FF
:101F5000016851E8051F026821F0010142E80513FC
:101F60007BB3016851E8051F026821F0010142E8D6
:101F7000051333B3016851E8051F026821F0010120
:101F800042E80513002BDAD11BE000BF016851E8DD
:101F9000051F026821F0400142E80513DBB101682A
:101FA00051E8051F026821F0400142E8051393B192
:101FB000016851E8051F026821F0400142E805135D
:101FC0004BB1016851E8051F026821F0400142E869
:101FD0000513002BDAD1202180F842100021016383
:101FE000016851E8031F026821F0100142E8031361
:101FF000DBB1016851E8031F026821F0100142E8DB
:10200000031393B1016851E8031F026821F0100126
:1020100042E803134BB1016851E8031F026821F045
:10202000100142E80313002BDAD1C16B04460846C5
:10203000FEF7F4FC204602214163818DC28D891A8E
:1020400089B202B0BDE8B040FFF7C8BE436C43F0B0
:1020500001034364530706D5BEF1000F03D0436C60
:1020600043F002034364930706D5BEF1000F03D08B
:10207000436C43F004034364BCF1000F06D55EEAF1
:10208000050303D0436C43F008034364436C002B07
:102090003FF4DEAE920605D525B1044600F0CAFD38
:1020A000216820464969426C01F0400102F00802B3
:1020B000891800F0B98000BF016851E8031F026869
:1020C00021F4907142E80313BBB3016851E8031F88
:1020D000026821F4907142E8031373B3016851E878
:1020E000031F026821F4907142E803132BB30168C7
:1020F00051E8031F026821F4907142E80313002B9A
:10210000DAD11AE0016851E8051F026821F00101E7
:1021100042E80513DBB1016851E8051F026821F0B0
:10212000010142E8051393B1016851E8051F0268F7
:1021300021F0010142E805134BB1016851E8051F88
:10214000026821F0010142E80513002BDAD1016B8E
:10215000012924D1016851E8031F026821F0100110
:1021600042E80313DBB1016851E8031F026821F064
:10217000100142E8031393B1016851E8031F02689C
:1021800021F0100142E803134BB1016851E8031F2D
:10219000026821F0100142E80313002BDAD120215C
:1021A00080F842100021016301684969490640F145
:1021B000C380016851E8051F026821F0400142E830
:1021C0000513DBB1016851E8051F026821F04001E9
:1021D00042E8051393B1016851E8051F026821F038
:1021E000400142E805134BB1016851E8051F026840
:1021F00021F0400142E80513002BDAD1C16B002920
:1022000000F09A8042F62942C0F6000204460846D1
:102210004A63FEF727FC00283FF41AAEE06B416BDF
:1022200002B0BDE8B04008470446FFF7D9FD0020E2
:10223000606402B0B0BD00BF891A00BF026852E8F6
:10224000032F036822F4907243E80325BDB30268AC
:1022500052E8032F036822F4907243E8032575B314
:10226000026852E8032F036822F4907243E80325C2
:102270002DB3026852E8032F036822F4907243E8FA
:102280000325002DDAD11AE0026852E8052F036811
:1022900022F0010243E80525DDB1026852E8052F6E
:1022A000036822F0010243E8052595B1026852E86F
:1022B000052F036822F0010243E805254DB10268AD
:1022C00052E8052F036822F0010243E80525002D9E
:1022D000DAD1202280F8422000220263026852E80C
:1022E000032F036822F0100243E80325DDB10268E2
:1022F00052E8032F036822F0100243E8032595B14A
:10230000026852E8032F036822F0100243E8032515
:102310004DB1026852E8032F036822F0100243E82F
:102320000325002DDAD1022289B2426302B0BDE852
:10233000B040FFF753BD00BF02B0BDE8B040FFF7AB
:102340004FBD00BF026A32F8023B6FF35F234B6060
:10235000026295E5002804BF0120704710B50446CD
:1023600090F8410028B9002084F84000204600F091
:1023700063F8242084F841002068D4E90212C3687D
:1023800023F40053C360036923F440531A430261EA
:10239000D4E904231143C268194341F20C639A4300
:1023A0001143C1604169A26921F44071114343F6B0
:1023B0000002C4F201029042416103D0FEF794FE94
:1023C00002E000BFFEF7A4FED4E900231921484330
:1023D0009900B0FBF1F048F21F5CC5F2EB1CA0FBCA
:1023E0000C314FF69C734909C0F6FF7301FB0300E3
:1023F000322303EB0010A0FB0C03F02000EA531083
:1024000000EB0110C3F343110844906010692021D0
:1024100020F490401061506920F02A005061D0688B
:1024200040F40050D0600020606484F8411084F8CB
:102430004210606310BD000070B586B040F6000425
:10244000C4F20104006804F5405100268842059654
:10245000CDE90366029601D006B070BD41F21800C6
:10246000C4F20200016802AD41F4804101600168DC
:1024700001F4804101910199016841F0040101607A
:102480000068294600F00400019001984FF40070A4
:10249000029002200390032005902046FEF790FB57
:1024A0004FF48060CDE90206204629460496FEF7E7
:1024B00087FB252004210022FEF7FCFC2520FEF7E7
:1024C000E7FC06B070BD000090F84230202B07D129
:1024D00000294FF0010318BF002A05D118467047A4
:1024E00002231846704700BF002303638162222144
:1024F0008285C285436480F842100169006819B181
:10250000C16841F48071C160416941F001014161DC
:10251000C16841F02001C16018467047006843F669
:102520000001C4F20101884218BF704740F2B010A8
:10253000C2F20000007831280BD840F21201C2F23A
:1025400000010880088840F22011C2F200010968E9
:10255000486340F2681040F2B011C2F20000C2F2CB
:1025600000010122FFF7B0BF2DE9F04381B004461E
:1025700090F84100202809D100294FF0010018BF30
:10258000002A07D101B0BDE8F08300BF022001B0EE
:10259000BDE8F0830020606421201D460E4684F8CB
:1025A00041001746FEF706FCA784E784A168814630
:1025B000B1F5805F02D1206900285DD03746002048
:1025C000E28C2168002A5DD06A1C24D0002D4AD0FC
:1025D000804600BF0868000608D4FEF7EBFBA0EBBE
:1025E0000900A8427AD82168C868F3E717B117F83C
:1025F000010B04E038F8020B00276FF35F204860FE
:10260000E08C0138E084E08C0028E3D13AE000BFA0
:102610000A68120609D40A68120606D40A68120665
:102620005CBF0A685FEA0262F2D51FB117F8012B9E
:1026300005E000BF30F8022B00276FF35F224A60ED
:10264000E28C013AE284E28C002AE4D11AE000BF75
:1026500030F8022B00276FF35F224A60E28C013AC8
:10266000E284E28C72B10A68120635D5002FEFD0F1
:1026700017F8012BF1E700BF00273046E28C2168F4
:10268000002AA1D1086840061ED42DB3681C14D1BD
:10269000086840062AD40868400627D4086840061F
:1026A00024D4086840064FF00000F1D50DE000BFCB
:1026B0002068C1680068400618D4FEF77BFBA0EBD9
:1026C0000900A842F4D909E00020202184F8411033
:1026D00001B0BDE8F08300BFFEF76CFB03202021B2
:1026E00084F8411001B0BDE8F08300BF0020202134
:1026F00084F8411001B0BDE8F0830000704700008D
:10270000FEE70000F0B585B0002641F21800CDE9E3
:102710000366CDE90166C4F20200016841F6004497
:1027200041F0800101600168C4F2010401F0800100
:10273000009100990168002241F0040101600168E4
:10274000152501F0040100910099016841F008018C
:1027500001600068152100F00800009000982046F4
:10276000FEF722FB0195022001AD012704902046CF
:102770002946CDE90276FEF723FA0020C1F21100C6
:10278000CDE90206A4F5A05029460197FEF718FAF4
:10279000062003210022FEF78DFB0620FEF778FBC2
:1027A00005B0F0BD80B58CB040F2D8000021C2F277
:1027B00000004FF080424FF6FF73C0E90021032272
:1027C000C0E90213CDE9032101220523CDE900115F
:1027D00001618161CDE90521CDE90731CDE909210B
:1027E00003A90B93FFF720F8002818BFFEF7C8F8DD
:1027F00040F2D800C2F200006946FEF7B3FE00289E
:1028000018BFFEF7BDF80CB080BD0000B0B594B0A5
:1028100040F2004540F22010C4F200050021C2F24F
:102820000000472231230E91CDE90C110991CDE929
:102830000711CDE90511CDE90311CDE90111C0E979
:102840000052C0E9021301618161FEF7D7FE002842
:1028500018BFFEF795F84FF480500B9040F220100F
:10286000C2F200000BA9FEF70FFF002818BFFEF709
:1028700087F840F22010C2F20000FFF70FFA00289C
:1028800018BFFEF77DF840F220100024C2F20000CD
:1028900008A9CDE90844FEF765FE002818BFFEF739
:1028A0006FF8602001903120CDE90204059440F2D8
:1028B0002014C2F2000401A920460022FFF7C0F84C
:1028C000002818BFFEF75CF821680020A942CDE976
:1028D00012001190109001D014B0B0BD41F2180058
:1028E000C4F20200016841F004010160006810A90F
:1028F00000F004000F900F984020109002201190DB
:10290000139005F58230FEF75BF914B0B0BD0000FE
:1029100080B540F2681043F60001C2F20000C4F234
:10292000010100234FF00C0E4FF4E1324FF4005C34
:1029300080E80E10C0E9043EC0E90633FFF70AFD47
:10294000002808BF80BDBDE88040FEF719B8000030
:10295000FEE7000010B541F60044C4F20104204631
:1029600004210122FEF720FA204610210022FEF762
:102970001BFA204601210022BDE81040FEF714BAE0
:10298000FEE7000080B580E80E000021C0E90511D7
:102990000022002340F2000C40F2000E2030C4F26E
:1029A0004832CCF24833C4F2442CCCF2442E80E8B6
:1029B0000E5080BD2DE9F041044606680169C068EB
:1029C000276AFDF723FC314605466061FDF724FCCC
:1029D0004DF20A718046C3F623412846FDF71CFCE0
:1029E0003946FDF7C1FB002107462062C4F2483199
:1029F0002846FDF781FC18B90020206216E000BFD0
:102A0000666A38463146FDF793FC28B9A66A38460F
:102A10003146FDF77FFC08B93746266260683946C3
:102A2000FDF7FAFB4146FDF79FFB8046A169A668CA
:102A3000E76A2846FDF7EAFB01463046FDF7ECFB66
:102A40004146FDF791FB394606466063A561FDF7F7
:102A50006FFC28B9276B30463946FDF75BFC08B997
:102A60003E4667633046BDE8F081000070470000D5
:102A70007047000010B541F60044C4F2010420463E
:102A800010210022FEF790F9204601210122FEF7D5
:102A90008BF940F2300049F69A12C2F20000C3F6F8
:102AA00099624FF07C510023BDE81040FFF76ABFE8
:102AB000B0B540F2300441F60045C2F20004C4F261
:102AC0000105E060FDF762FF20612046FFF772FF1D
:102AD00000210446FDF71EFC60B9284610210122A2
:102AE000FEF762F9284601210022FEF75DF984F025
:102AF000004409E0284610210022FEF755F9284637
:102B000001210122FEF750F92046FDF72DFC40F28D
:102B10002011C2F2000109684863B0BD80B5FEF71C
:102B20004FF940F22C00C2F2000001780131CAB224
:102B30000A2A017038BF80BD002101700121417057
:102B400080BD00007047000010B540F6FF320368FA
:102B5000C4F2000240F6004E43F2004C9042C4F230
:102B6000000EC4F2010C21DCB0F1804F28D040F2FD
:102B70000044C4F20004A04222D040F60004C4F293
:102B80000004A0421CD0904220DCB0F1804F27D03E
:102B900040F20042C4F20002904221D040F600020E
:102BA000C4F2000290421BD01EE000BF704507D067
:102BB000604505D042F60044C4F20104A042E2D1CF
:102BC0004C6823F0700323439042DEDD704507D04C
:102BD000604505D042F60042C4F20102904203D1A2
:102BE000CA6823F4407313434C6923F08002D1F880
:102BF00000E08B68224360450260C362C0F828E0B1
:102C000005D042F60042C4F20102904201D10969A6
:102C10000163012141610169C90708BF10BD016954
:102C200021F00101016110BD406A0021C185C1840C
:102C3000FFF7D6B881B090F84210222921D18368DD
:102C40000246B3F5805F09D152F8281F52F8183CAC
:102C5000002B63D003685B680AE000BF52F8281FAE
:102C600013B90369002BF5D003685B6803F07F0399
:102C70000B70116801311160C18D01390A04C185E1
:102C800002D001B0704700BF0168CA6822F020027C
:102C9000CA60CA6822F48072CA604A6922F00102DE
:102CA0004A61202180F8421000214163026B012A11
:102CB0003CD10163016851E8031F026821F0100153
:102CC00042E80313DBB1016851E8031F026821F0F9
:102CD000100142E8031393B1016851E8031F026831
:102CE00021F0100142E803134BB1016851E8031FC2
:102CF000026821F0100142E80313002BDAD10168C9
:102D00000A68D20606D5002200920A680092496835
:102D100000910099818D01B0FFF760B80268526898
:102D20006FF35F2221F8022B8162A5E701B0FFF764
:102D3000F5BB000040F26810C2F20000FFF752B885
:102D4000FEE7000080B582B0019040F26810C2F248
:102D5000000001A901226423FFF706FC019802B0DC
:102D600080BD000094B0FEF739F800240120CDE9C1
:102D70000F44CDE90D440A900E904FF4E0104FF44B
:102D80008031022513900AA8CDE90B14CDE9115129
:102D9000FEF7D2F920B1EFF3108072B6FEE700BF64
:102DA0000F20CDE905054FF48060CDE9080405A8A2
:102DB00002210794FEF7BAF820B1EFF3108072B643
:102DC000FEE700BFFFF79EFCFFF720FDFFF7A0FD29
:102DD000FFF7E8FCFFF7BEFDFFF74CFE40F22010C6
:102DE000C2F200000021FEF789FF40F2D800C2F2D3
:102DF00000003C21FEF7C6FD40F2681040F2B01121
:102E0000C2F20000C2F200010122FFF75DFB40F2B6
:102E10002D094AF2201840F2000AC2F20009C0F25D
:102E20000708C4F2FA3A00BF002499F8000028B15C
:102E3000002089F800005046FFF73AFE444504F1AF
:102E40000104F2D340F22010C2F200000068406B8F
:102E5000FDF785FA074640F23000C2F200004469EF
:102E60000069FDF795FA834620460E46FDF790FA75
:102E7000044638460D46FDF78BFA029004A05A46E8
:102E80003346CDE90045039100F012F8CCE700BFCE
:102E900073706565643D252E3166206572723D252F
:102EA0002E31662070776D3D252E31660D0A0000AB
:102EB0000FB4054B10B503A9044A029800F0DAF8E4
:102EC00010BC5DF814FB0000452D00080000002038
:102ED00002E008C8121F08C1002AFAD170477047E3
:102EE000002001E001C1121F002AFBD17047000041
:102EF0002DE9FF5F82B00021DDE90430020DDDF82D
:102F000040B0034318D044F61050A2F2FF324243BF
:102F10001514119801281FD0A5EB0B00401C5FEA87
:102F2000000A4FF000064E4FDFF83891B046504689
:102F300015D5CAF1000413E0119801244AA3012811
:102F400001D16FEA0B010298119AC0E90031C0E982
:102F5000024206B0BDE8F09FCBF10000DFE7044677
:102F60000021404A491842EB0450CDE9001012E01C
:102F7000E00707D032463B4640464946FDF740FB56
:102F80008046894632463B4610461946FDF738FBD7
:102F900006460F466410002CEAD1DDE90401DDE9A4
:102FA0000023BAF1000F06DAFDF72AFB42464B4632
:102FB000FDF726FB05E0FDF795FB42464B46FDF786
:102FC00091FB04460E460022284BFDF713FC03D864
:102FD0004FF0FF30014607E00022254B20463146E6
:102FE000FDF767FAFDF7EDFB102409E0002C0ADB82
:102FF0000A220023FDF7F5F9039B30321A55641EAF
:1030000050EA0102F2D1641C039AC4F11103144482
:10301000119A012A03D0012208430DD10AE0084386
:1030200004D000204FF0110B119072E7A3EB0B05B9
:103030006D1E0DE05B4504DD4FF0000205F101055A
:1030400004E003DA4FF00002A5F10105002AECD0FC
:1030500002981199C0E90231C0E9004579E7000002
:10306000000014400000F03F300000000000F0437A
:103070000000E03F2DE9FF4F95B09B46894606468C
:1030800000250FE2252877D100242746F84A0121A0
:10309000059400E0044316F8013F203B01FA03F0D9
:1030A0001042F7D130782A2811D06FF02F033078F2
:1030B000A0F13002092A16D8059A44F0020402EB66
:1030C000820203EB42021044761C0590EFE759F8A8
:1030D000042B0592002A03DA504244F40054059070
:1030E00044F00204761C30782E2816D116F8010F11
:1030F00044F004042A280DD06FF02F023078A0F19C
:103100003003092B09D807EB870302EB4303C718E9
:10311000761CF3E759F8047B761C30786C280FD0C6
:1031200006DC4C2817D068280DD06A2814D104E09A
:10313000742810D07A280FD10DE044F400140AE06E
:1031400044F4801401E044F440147278824202D1C5
:1031500004F58014761C761C307866280BD013DCBE
:10316000582877D009DC002875D04528F6D04628A5
:10317000F4D047281AD19DE118E0632835D064289F
:1031800079D0652812D195E1702873D008DC6728C2
:10319000F1D069286FD06E280DD06F2806D1B5E028
:1031A00073282CD0752875D0782874D05A46179972
:1031B00090476D1C75E1C4F30250022809D0032822
:1031C0000DD0D9F8001004280DD00D6009F10409C4
:1031D00067E1D9F80010EA17C1E90052F6E7D9F81B
:1031E00000100D80F2E70D70F0E719F8041B8DF860
:1031F000001000208DF80100EA46012003E059F894
:1032000004AB4FF0FF3061074FF0000102D40DE036
:1032100008F101018846B9420FDA8045F8DB1AF857
:1032200008100029F4D108E008F101018846814224
:10323000FADB1AF808100029F6D105985B46A0EBD6
:10324000080721463846179A00F094FA284400EB04
:10325000080507E04DE029E10DE01AF8010B5A4698
:1032600017999047B8F10108F7D25B4621463846D6
:10327000179A13E142E00A220092C4F302524FF07F
:10328000000A022A08D059F804CB032A4FEAEC714D
:103290000AD00DE029E02AE009F1070121F0070238
:1032A000F2E802C1914609E00FFA8CFC4FEAEC719A
:1032B000042A03D14FFA8CFC4FEAEC71002907DA9B
:1032C0000A460021DCF1000C61EB02012D2202E034
:1032D000220504D52B228DF80420012203E0E20709
:1032E00001D02022F7E7904659E00A2102E010229F
:1032F0000DE010214FF0000A00910BE010224FF07A
:10330000000A44F004040827009203E008224FF06A
:10331000000A0092C4F30252022A05D059F804CBE5
:103320000021032A08D009E009F1070121F0070272
:10333000F2E802C1914605E01FFA8CFC042A01D193
:103340000CF0FF0C4FF00008220728D5702806D09B
:10335000009B83F0100353EA0A0305D00EE04022DD
:103360008DF80420012208E05CEA010206D0302238
:103370008DF804208DF8050002229046009B83F012
:10338000080353EA0A030AD15CEA010201D1620789
:1033900005D530228DF804204FF001087F1E5828F3
:1033A00004D034A003900EA802900DE036A0F9E7F7
:1033B00053466046009AFDF714F884460398825CF1
:1033C0000298401E029002705CEA0100F0D102985F
:1033D00006A9081A00F1200A600702D524F48034F7
:1033E00000E00127574502DDA7EB0A0000E00020BE
:1033F00000EB0A01009005984144401A0590E00353
:1034000006D45B462146179A059800F0B3F90544A7
:10341000002706E001A85A46C05D179990476D1C29
:103420007F1C4745F6DBE0030CD55B462146179A27
:10343000059800F09FF9054404E030205A4617999A
:1034400090476D1C0099481E00900029F5DC08E0AB
:10345000029802995A460078491C029117999047A0
:103460006D1CBAF10001AAF1010AF1DC65E100006E
:10347000092801003031323334353637383961624A
:10348000636465660000000030313233343536370E
:1034900038394142434445460000000000F058F9E5
:1034A0000544761C307800287FF4ECAD19B028462E
:1034B000BDE8F08F620700D4062709F1070222F069
:1034C000070CFCE80223E14603F000485FEA080C21
:1034D00002D00FF2702C0DE05FEA045C02D50FF20F
:1034E000682C07E05FEAC47C02D00FF2602C01E098
:1034F000AFF2700C4FF0FF3823F00043CDF850C00E
:1035000065280CD006DC452809D046281DD0472860
:103510003DD13DE0662818D067287ED138E00021F3
:10352000112F01DB112000E0781CCDE9000106A974
:103530000EA8FFF7DDFCDDE90F010E9A03910021D3
:10354000009207F1010A04914DE04FF0004000970E
:10355000CDE9011006A90EA8FFF7CAFCDDE90F02AC
:1035600003920E9B11990022DDF80CA000930492A7
:1035700011B9791C00EB010AB7EB0A0004D4C0F1C1
:10358000FF3007F1010A0490AAEB0700019044E024
:10359000012F00DA01270021112F01DD112000E0A9
:1035A0003846CDE9000106A90EA8FFF7A1FCDDE928
:1035B0000F010E9A0391002104910092BA4621074F
:1035C0000CD40399514500DA8A46BAF1010F05DDA2
:1035D000009AAAF10101515C302908D0B84202DA00
:1035E00010F1040F06DA0121CDE9011015E0AAF16E
:1035F0000101E9E7002805DC049901440491AAEBE4
:10360000000102E0411C514500DD8A460499401A40
:10361000401C01904FF000400290200704D4019814
:10362000504501DBCDF8048000208DF84F00029852
:103630000DF14F07B0F1004F25D02B200E900298CE
:103640004FF0020800280CDA404202902D200E9024
:1036500007E00A210298FCF7AEFE3031029007F82D
:10366000011DB8F10001A8F10108F2DC0298002860
:10367000EFD1791E0E980870307800F0200040F0ED
:10368000450007F8020D12A8C01B00F107081498A6
:10369000007800B1012000EB0A01019801EBE07114
:1036A00005984144401A401E0590E00306D45B464D
:1036B0002146179A059800F05DF8054414980078A3
:1036C00018B15A46179990476D1CE00324D55B4604
:1036D0002146179A059800F04DF805441CE004981F
:1036E000002807DBDDE90301884203DD0098405C28
:1036F000179901E0179930205A469047049805F130
:103700000105401C04900198401E019004D12E2018
:103710005A46179990476D1CBAF10001AAF1010AA7
:10372000DDDC05E017F8010B5A46179990476D1C30
:10373000B8F10001A8F10108F4DC5B462146179AB4
:103740000598ABE62D0000002B00000020000000D3
:103750002DE9F041044600251E461746880404D48E
:1037600005E039462020B0476D1C641EF9D5284677
:10377000BDE8F0812DE9F041044600251E46904643
:10378000C80301D5302700E02027880404D505E0D0
:1037900041463846B0476D1C641EF9D52846BDE841
:1037A000F081000000000000000001020304060791
:1037B00008090000000001020304010202030405DD
:1037C000060708090A0B0C0D0E0F1010F037000841
:1037D0000000002010000000D02E00080038000873
:1037E00010000020A8050000E02E000800000000E6
:1037F00000000000010000001000000000127A002C
:0400000508000131BD
:00000001FF
